:020000040800F2
:10000000280700202902000805130008FD12000837
:1000100001130008D50300081115000800000000B6
:100020000000000000000000000000000D130008A8
:1000300079060008000000000913000811130008E9
:10004000430200084302000843020008430200087C
:10005000430200084302000843020008430200086C
:10006000430200084302000843020008430200085C
:10007000430200084302000843020008430200084C
:10008000430200084302000843020008430200083C
:10009000430200084302000843020008430200082C
:1000A000430200084302000843020008430200081C
:1000B000430200084302000843020008430200080C
:1000C00043020008430200084302000843020008FC
:1000D00043020008430200084302000843020008EC
:1000E00043020008430200084302000843020008DC
:1000F00043020008430200084302000843020008CC
:1001000043020008430200084302000843020008BB
:1001100043020008430200084302000843020008AB
:10012000430200084302000843020008430200089B
:10013000430200084302000843020008430200088B
:10014000430200084302000843020008430200087B
:10015000430200084302000843020008430200086B
:10016000430200084302000843020008430200085B
:100170004302000843020008430200080000000098
:10018000430200084302000800F002F800F03CF8C7
:100190000AA090E8000C82448344AAF10107DA45E2
:1001A00001D100F031F8AFF2090EBAE80F0013F0F8
:1001B000010F18BFFB1A43F001031847301A000063
:1001C000501A0000103A24BF78C878C1FAD85207F4
:1001D00024BF30C830C144BF04680C6070470000C1
:1001E0000023002400250026103A28BF78C1FBD840
:1001F000520728BF30C148BF0B6070471FB501F0E0
:10020000D6FC1FBD10B510BD00F0A9F81146FFF7D0
:10021000F5FF01F081F900F0C7F803B4FFF7F2FF32
:1002200003BC00F0CFF800000948804709480047A8
:10023000FEE7FEE7FEE7FEE7FEE7FEE7FEE7FEE796
:10024000FEE7FEE704480549054A064B70470000F3
:10025000C113000889010008280100202807002098
:10026000280300202803002053EA020C00F06980D4
:100270002DE9F04B4FF00006002B1FBFB3FA83F5BA
:1002800003FA05F424FA05F65E4012BF1643B2FAEB
:1002900082F502FA05F4C5F120051EBF22FA05FC1D
:1002A00044EA0C04203556EA044C4FEA144418BFC3
:1002B000641C4FF000084FF00009904271EB030CF2
:1002C00039D3002919BFB1FA81F701FA07F6B0FA5C
:1002D00080F700FA07F6C7F120071EBF20FA07FCD7
:1002E00046EA0C062037B6FBF4FCA7EB0507103FE7
:1002F00007F01F0BCBF120062CFA06F60CFA0BFBCD
:1003000044BFB3460026202FA4BF5E464FF0000B2B
:100310005BEA060C08BF4FF0010B19EB0B0948EB29
:100320000608ABFB027C06FB02CC0BFB03CCC01B1C
:1003300071EB0C01C1E70B46024641464846BDE859
:10034000F08B13B5084318BF4FF0FF300146AFF3F1
:100350000080BDE81C407047704770477047754685
:1003600000F02CF8AE4605006946534620F0070021
:10037000854618B020B5FFF765FFBDE820404FF077
:1003800000064FF000074FF000084FF0000BAC469E
:10039000ACE8C009ACE8C009ACE8C009ACE8C009E9
:1003A00021F007018D46704710B50446AFF3008079
:1003B0002046BDE81040FFF730BF000000487047FE
:1003C0001000002001491820ABBEFEE72600020005
:1003D00070470000FEE700002DE9F04F81B00024D7
:1003E000C4F202042046022100F01CFA0028F9D0D1
:1003F00040F27008C2F20008D8F8140000214162EF
:10040000416A272908D8416A272905D8416A27293E
:1004100002D8416A2829F3D32046022100F002FACB
:10042000814600BF2046022100F0FCF90028F9D1E6
:100430002046022100F0F6F90028F9D0D8F814007F
:1004400000214162416A272908D8416A272905D835
:10045000416A272902D8416A2829F3D3204602217C
:1004600000F0E0F9009000BF2046022100F0DAF928
:100470000028F9D12046022100F0D4F90028F9D053
:10048000D8F8140000214162416A272908D8416A3E
:10049000272905D8416A272902D8416A2829F3D398
:1004A0002046022100F0BEF9824600BF204602210C
:1004B00000F0B8F90028F9D12046022100F0B2F985
:1004C0000028F9D0D8F8140000214162416A272998
:1004D00008D8416A272905D8416A272902D8416AE4
:1004E0002829F3D32046022100F09CF9834600BF5F
:1004F0002046022100F096F90028F9D12046022179
:1005000000F090F90028F9D0D8F8140000214162D9
:10051000416A272908D8416A272905D8416A27292D
:1005200002D8416A2829F3D32046022100F07AF943
:10053000054600BF2046022100F074F90028F9D1D9
:100540002046022100F06EF90028F9D0D8F81400F6
:1005500000214162416A272908D8416A272905D824
:10056000416A272902D8416A2829F3D3204602216B
:1005700000F058F9074600BF2046022100F052F96A
:100580000028F9D12046022100F04CF90028F9D0CA
:10059000D8F8140000214162416A272908D8416A2D
:1005A000272905D8416A272902D8416A2829F3D387
:1005B0002046022100F036F9064600BF20460221FF
:1005C00000F030F90028F9D12046022100F02AF984
:1005D0000028F9D0D8F8140000214162416A272987
:1005E00008D8416A272905D8416A272902D8416AD3
:1005F0002829F3D32046022100F014F9804600BFD9
:100600002046022100F00EF90028F9D1B8F1000FC0
:1006100018BF4FF00108002E18BF0126002F6FF001
:100620003F0018BF0127B9F1000F18BF4FF00109B3
:1006300008BF40200099002908BF4FEAC910BAF14D
:10064000000F18BF4FF0010A40EA4A10BBF1000F3B
:1006500018BF4FF0010B40EA0B10002D18BF012509
:1006600040EAC50040EA870040EA460040EA080048
:10067000C0B201B0BDE8F08F704700002DE9F04F27
:1006800082B000F13E4241F6004502F1FF77C4F22C
:100690000205082243F6004E4FEAB726A84208BFDB
:1006A0000722C4F2010E072E38BF4FEAB7220125F8
:1006B000002600274FF00008009208E008F101082A
:1006C0000437B8F1100F06F1020600F0A7800C689D
:1006D00005FA08F914EA090FF0D0D1F804B00322A2
:1006E0000BF0030CACF10104B240012C6FEA020ADA
:1006F00010D88268CC6802EA0A02B44022438260C1
:100700004268CBF3001422EA090204FA08F42243F7
:10071000426005E0BCF1030F02D14FF0030C20E072
:10072000C2688C6802EA0A02B4402243BCF1020F9C
:10073000C26016D16FF0030202EA58020244D2F8F6
:1007400020C007F01C050F230C69AB402CEA030303
:1007500004FA05F52B431362D1F804B001250BF020
:10076000030C02680CFA06F302EA0A021A431BF4AD
:10077000403F0260A2D0002243F644030192C4F23B
:1007800002031A684FF6084C42F480421A601A6855
:10079000CFF6FF7C02F480420192019A28F0030216
:1007A000724452F80C3007F00C050F24AC40A34300
:1007B000009C04FA05F52B4342F80C30DEF80820C3
:1007C0004B6842EA090543F60C4CDC0258BF22EAAA
:1007D0000905CEF80850C4F2010CDCF800209C0298
:1007E00042EA090558BF22EA0905CCF80050DEF8B4
:1007F00004209C0342EA090558BF22EA0905CEF805
:100800000450DEF80020DB0342EA090558BF22EA63
:100810000905CEF80050012550E700BF02B0BDE841
:10082000F08F00000069084018BF012070470000E9
:10083000002A08BF090481617047000040F22010BF
:10084000C2F200000068704770B5B8B3044690F873
:100850003D0028B9002084F83C00204600F0B0F8A4
:10086000242084F83D002068016821F00101016026
:10087000016841F400410160016821F40041016018
:1008800000F02AFA48F28041C0F21E0140F600133F
:10089000D4F804E088424FF00001C0F23D0348F272
:1008A000A16C4FF0000238BF01219842C0F2010C48
:1008B00038BF0122E64538BF0A460AB1012070BDA3
:1008C0004DF68361C4F21B31A0FB01122168950C27
:1008D0004B684FF4967623F03F0343EA9243754307
:1008E00044F6D3564B60C1F262060B6AA5FB06566E
:1008F000B50923F03F03E64538BF950C6A1C1A433F
:100900000A62CA6948F2A0664CF6FF73C0F201069B
:10091000B64522EA03020BD801384FEA4E03B0FB7A
:10092000F3F001306FF31F30042898BF04201EE05D
:10093000A368013863B119230EFB03F3B0FBF3F096
:1009400001306FF31F3078B100F5804008E000BF40
:100950000EEB4E03B0FBF3F001306FF31F3028B104
:1009600000F5004003E000BF012000E0012010433B
:10097000C8610868D4E9072320F0C0001043184379
:100980000860886848F2FF3204F10C0690434CCEB0
:1009900018431043A5698860C86820F0FF00304301
:1009A0002843C860086840F001000860002020214A
:1009B000206484F83D10206384F83E0070BD000080
:1009C000B0B586B0016845F20040C4F20000814233
:1009D00002D006B0B0BD00BF002443F6300501943C
:1009E000C4F20205296800F5D83041F002012960FF
:1009F000296801F0020101910199C02101911221A0
:100A0000CDE90214032104910421059101A9FFF706
:100A100035FE0094286940F400102861286900F42C
:100A200000100090009806B0B0BD000040F2000039
:100A300040F22011C2F20000C2F2000100780A6800
:100A4000104408607047000080B543F60040C4F2CF
:100A50000200016841F400710160016841F48061A5
:100A60000160016841F480710160032000F074F8B6
:100A70000F2000F005F800F027F8002080BD0000EE
:100A800070B540F20006C2F2000640F2080132786A
:100A9000C2F200014FF47A730968B3FBF2F2044624
:100AA000B1FBF2F1084600F01BFB0F2C4FF00105E3
:100AB00008D838B94FF0FF3021460022002500F059
:100AC0001FF87460284670BD82B0002043F64001D4
:100AD0000190C4F202014A6842F480424A604A68C6
:100AE00002F480420192019A0090086840F0805020
:100AF0000860086800F080500090009802B07047CD
:100B000010B54EF60C5CCEF2000CDCF80030C3F3EE
:100B1000022E8EF00704042C28BF0424BEF1030328
:100B20004FF0FF3E0EFA04F438BF0023A143994072
:100B30000EFA03F39A43114300F00F0200F16043F1
:100B40000901043A03F564436244002848BF02F1F6
:100B50000C03197010BD00004EF60C51CEF20001CE
:100B60000A684FF6FF031A4060F30A2242F08060E1
:100B700040F0FD70086070472DE9F041002800F05A
:100B80008B8043F60808C4F202080446D8F8F8033C
:100B90000D4600F00700884207D288F8F853D8F8CD
:100BA000F80300F00700A84276D12068810717D526
:100BB000410705D5D8F8001041F4E051C8F80010FD
:100BC000010705D5D8F8001041F46041C8F80010BD
:100BD000D8F80010A26821F0F0011143C8F8001005
:100BE000C0073FD1D8F8F80300F00700A84207D9A2
:100BF00088F8F853D8F8F80300F00700A8424BD162
:100C00002068410707D5D8F80010E26821F4E051C8
:100C10001143C8F80010000708D5D8F80000216972
:100C200020F4604040EAC100C8F8000000F068F815
:100C3000D8F8001041F6D232C1F30311C0F6000219
:100C4000515C40F2080220FA01F140F20400C2F2C5
:100C500000000068C2F200021160FFF711FF0020DF
:100C6000BDE8F0816068811E022907D258F8081C8F
:100C700089015CBF0120BDE8F08111E0012807D1A6
:100C800058F8081C89035CBF0120BDE8F08107E02B
:100C900058F8081C890703D40120BDE8F08100BF83
:100CA000D8F8001021F003010843C8F80000FFF74E
:100CB000C5FD064641F28837D8F80000616800F0AB
:100CC0000C00B0EB810F8DD0FFF7B8FD801BB84250
:100CD000F2D90320BDE8F08140F2080043F6080194
:100CE000C2F20000C4F202010068096841F6E23273
:100CF000C1F38221C0F60002515CC8407047000079
:100D000010B543F60404C4F20204606800F00C015C
:100D100042F200400829C0F2F40007D0042918BFAD
:100D200010BD41F20020C0F27A0010BD216801F030
:100D30003F02216823684902C3F3881106D4A1FB4E
:100D400000010023FFF790FA07E000BF41F2002006
:100D5000C0F27A004843B0FBF2F021680222C1F3EE
:100D6000014102EB4101B0FBF1F010BD2DE9F04172
:100D700082B0002868D00446007843F60006C00719
:100D8000C4F202060BD0B06800F00C00042840F05A
:100D90009F803068800302D56068002854D0207896
:100DA00080071AD5B06810F00C0F09D0B06800F0B9
:100DB0000C00082840F0A6807068400200F1A28074
:100DC0003068800702D5E06801283DD1306821698C
:100DD00020F0F80040EAC10030602078000737D4E6
:100DE000207840074CD4A56955B3B06800F00C00DA
:100DF000082840F0BB80012D26D07068E16900F41E
:100E000080028A4220D1216A00F03F028A421BD12F
:100E100047F6C071626A0140B1EB821F14D1A16A2A
:100E20004FF6FF73C903994300F44032A1F58031B6
:100E30008A4209D1E16A00F07060B0EB016F03D122
:100E4000002002B0BDE8F081012002B0BDE8F081D1
:100E50006069002840F20000C4F2472076D00121EA
:100E6000C0F8801EFFF7EAFC054600BF706F8007E0
:100E7000B6D4FFF7E3FC401B0228F7D9DDE000BF42
:100E8000306C10F080580AD100200190306C40F096
:100E900080503064306C00F080500190019847F22F
:100EA0000007C4F200073868C00541D4386840F430
:100EB00080703860FFF7C2FC054600BF3868C00587
:100EC00036D4FFF7BBFC401B0228F7D9B5E000BFC2
:100ED000B06800F00C00082803D1706840023FF5AC
:100EE00058AF6068B0F5803F07D0B0F5A02F40F054
:100EF0008D80306840F480203060306840F480306D
:100F000030608DE0E068002852D00020C4F2472015
:100F100001210160FFF792FC054600BF30688007A1
:100F20003FF554AFFFF78AFC401B0228F6D984E056
:100F3000A068012805D005284ED1306F40F004008C
:100F40003067306F40F0010030674FE00021C0F89B
:100F5000801EFFF773FC0546706F80077FF540AF7A
:100F6000FFF76CFC401B0228F6D966E00027C4F2AC
:100F7000472700203866FFF761FC022D05460BD19C
:100F8000306880015ED5FFF759FC401B02284FF006
:100F90000300F5D955E700BF306880017FF550AFF9
:100FA000FFF74CFC401B02284FF00300F4D948E740
:100FB0000020C4F2472000210160FFF73FFC0546F6
:100FC000306880077FF509AFFFF738FC401B022827
:100FD0004FF00300F4D934E7316F002821F001010C
:100FE0003167316F21F0040131674DD0FFF726FCE6
:100FF000054641F2883700BF306F800756D4FFF7AF
:101000001DFC401BB842F7D917E000BF316800282B
:1010100021F480313160316821F4802131604FD07A
:10102000FFF70CFC054600BF306880033FF5B7AE04
:10103000FFF704FC401B6428F6D9032002B0BDE88A
:10104000F08100BF04F11C052FCD084340EA821057
:10105000D9034FF6FF729143A1F5803140EA056054
:101060000843706001203866FFF7E8FB044600BFC4
:10107000306880013FF5E4AEFFF7E0FB001B02287B
:101080004FF00300F4D9DCE6FFF7D8FB054641F248
:10109000883700BF306F800708D5FFF7CFFB401BB4
:1010A000B8424FF00300F5D9CBE600BFB8F1000F0E
:1010B0007FF499AE306C20F08050306493E600BF2E
:1010C000FFF7BCFB054600BF306880037FF567AEC5
:1010D000FFF7B4FB401B64284FF00300F4D9B0E6DF
:1010E000411E0020B0EB116F1CBF012070474EF273
:1010F0001002CEF2000251604EF62351CEF20001F2
:10110000F0230B70072190601160704710B590F8C4
:101110003C20012A4FF0020251D080F83D200268A5
:10112000D2F804E0D2F808C00C682EF07003234314
:1011300041F2FF74C4F20004A24253600EDC40F29C
:10114000FF73C4F200039A4216DCB2F1804F2BD039
:1011500040F20043C4F2000324E000BF40F2FF333A
:10116000C4F201039A4213DC41F60003C4F2000307
:101170009A4219D0002313E040F60003C4F20003A2
:101180009A4211D040F60043C4F200030AE000BFC7
:1011900044F20003C4F201039A4205D040F2004336
:1011A000C4F201039A4204D149682CF08003194328
:1011B00091600121002280F83D1080F83C2010460B
:1011C00010BD0000002804BF0120704710B5044680
:1011D00090F83D0028B9002084F83C00204600F03B
:1011E0001FF8022084F83D002068211D00F0F2F86D
:1011F000012084F8460084F83E0084F83F0084F81B
:10120000400084F8410084F8420084F8430084F8E8
:10121000440084F8450084F83D00002010BD000023
:1012200081B0006841F20001C4F20001884201D09F
:1012300001B070470020009043F64000C4F2020065
:10124000016841F010010160006800F0100000909A
:10125000009801B07047000090F83D1001291CBFB4
:1012600001207047022180F83D10006841F2FF71B3
:10127000C4F2000188420DDC40F2FF71C4F20001AB
:10128000884215DCB0F1804F2AD040F20041C4F210
:10129000000123E040F2FF31C4F20101884213DC77
:1012A00041F60001C4F20001884219D0002113E088
:1012B00040F60001C4F20001884211D040F600411E
:1012C000C4F200010AE000BF44F20001C4F20101CF
:1012D000884205D040F20041C4F20101884206D1A3
:1012E000816801F00701062904BF002070470168EA
:1012F00041F001010160002070470000FEE700009E
:10130000FEE70000FEE700007047000070470000A5
:10131000FFF78CBBB0B592B0002443F640000B94AD
:10132000CDE90944CDE907440594CDE90344CDE96D
:1013300001440094C4F202000168022541F080518A
:101340000160006800F080500090009847F20000B3
:101350000094C4F20000016841F48041016000681B
:1013600000F48040009000980120099010200A901D
:1013700008200E903220CDE90F050420119006A818
:101380000695CDE90C54FFF7F1FC28B1EFF310807E
:1013900072B600BFFEE700BF0F20CDE901054FF494
:1013A0008050CDE9040401A801210394FFF7E4FB78
:1013B00020B1EFF3108072B6FEE700BF12B0B0BDEF
:1013C0004EF68850CEF20000016841F470010160D1
:1013D0007047000010B540F6FF3E0368C4F2000EEF
:1013E00040F2004C7045C4F2010C27DCB0F1804F94
:1013F00031D040F20042C4F2000290422BD040F6BD
:101400000002C4F20002904225D041F6FF72C4F2FD
:101410000002904229DC70453CDCB0F1804F5FD087
:1014200040F20042C4F20002904259D040F600025D
:10143000C4F20002904253D056E000BF40F6004292
:10144000C4F20002904206D0604504D00022C4F2EB
:1014500001029042D9D14A6823F07003134341F648
:10146000FF72C4F200029042D5DD43F6FF72C4F26F
:101470000102904222DC42F20002C4F200029042D9
:101480002ED00022C4F20102904229D0604527D01C
:101490002AE000BF40F60042C4F2000290421FD092
:1014A00041F60002C4F20002904219D041F6004217
:1014B000C4F20002904213D016E000BF44F20002D2
:1014C000C4F2010290420BD044F60002C4F20102C1
:1014D000904205D044F20042C4F20102904203D18E
:1014E000CA6823F44073134323F080024B69D1F898
:1014F00000E08C681A430260C46240F48062C0F865
:1015000028E0624504BF096901630121416110BD02
:10151000FEE70000000000008AB00024C4F20204CC
:10152000FFF792FAFFF7F6FE002543F63000089524
:101530000395C4F202000168002241F080010160BD
:101540000168022601F08001039103990395016867
:1015500041F001010160016801F00101039103996B
:101560000395016841F0020101600068022100F06A
:101570000200039003982046FFF75AF90120CDE9B5
:10158000050504A9204604960795FFF777F840F271
:101590007007C2F20007A4F5F831384640F8141F6E
:1015A00031214FF6FE72CDE90455C0E90115C26044
:1015B0008561FFF707FE28B1EFF3108072B600BF18
:1015C000FEE700BF07F114060DF110093046494649
:1015D000FFF79CFD20B1EFF3108072B6FEE700BF6D
:1015E00040F2CC00A4F5D631C2F2000048F2A0626D
:1015F00000254FF48043C0F2010280E82600C0E9D4
:101600000353C0E90555C0E90755FFF71DF928B197
:10161000EFF3108072B600BFFEE700BF3046FFF761
:101620001BFE9FED670B09F1080B51EC100BCDE988
:101630000110DDF804A04FF00208BFEE008A34E08C
:10164000FEF7CAFE7870FEF7C7FEB870FEF7C4FE5C
:10165000F870FEF7C1FE3871FEF7BEFEB7F8031052
:10166000F88008BAB7F80110000C09BA0E0C3881DE
:101670007E8100F035FAC846DDF8089053464A46A8
:1016800000F0D4F800F0A0F8F860304600F028FA36
:101690004A465346C1464FF0020800F0C7F800F032
:1016A00093F800EE100A87ED040A01200590204609
:1016B0004946CBE90055CBF80850CDF81080FEF72D
:1016C000DDFF204602210022FFF7B2F8786945626B
:1016D000416A09094A290BD8416A09094A2907D8E8
:1016E000416A09094A2903D8416AB1F5966FEFD3D7
:1016F000204602210122FFF79BF87869456200BF6E
:10170000416A132908D8416A132905D8416A132967
:1017100002D8416A1429F3D3204649460895CDE9F9
:101720000485CDE90655FEF7A9FF204649460895F0
:10173000CDE90485CDE90655FEF7A0FF786945623D
:10174000416A272908D8416A272905D8416A2729EB
:1017500002D8416A2829F3D320460221FFF762F814
:1017600010B1002616E000BF78694562416A4F2932
:1017700008D8416A4F2905D8416A4F2902D8416AE1
:101780005029F3D320460221FFF74CF80126002808
:1017900008BFFF2620460221FFF744F80028F9D1B0
:1017A000012E3E703FF44CAF0020CBF68070F86005
:1017B000B0EE480A87ED048A77E700BF00BF00BF9C
:1017C000000000000000244021F0004201F000432E
:1017D000A2F16052B2F5801F28BFD2F17F6C0BD905
:1017E0005FEA001C43EAC20242EB507018BF704728
:1017F00028BF20F001007047B2F5801FBCBF18461B
:1018000070474FEA410C1CF5001F02D2084600F059
:10181000DBB970B500F077F900000089FFF7F6BF7B
:101820004FF00040A0F58000704700002DE9C04156
:1018300030B4DFF8A4C23CEA111418BF3CEA131418
:1018400000F0ED801CEA111481EA030544EAD57426
:1018500018BF1CEA131500F0C880A4EB050404F1BE
:101860007F7404F500344FF0004545EAC12145EA94
:10187000C32341EA505143EA52534FEAC0204FEA92
:10188000C222994208BF904200F09D804FEA136542
:101890000FF24416765D4FEA134506FB05F7C7F1D4
:1018A000807706FB07F74FEAD737A7FB0368764236
:1018B000A7FB06CEC8F5803838BFA8F1010807FBA2
:1018C00008E6A6FB028C4FF0000EE6FB03CEDCF12F
:1018D000000CCEF1004E38BFAEF1010EA6FB0C5845
:1018E0004FF00007E6FB0E87A1FB08C6A0FB07CE62
:1018F00016EB0E064FF0000545F10005E1FB07650C
:1019000015F1E04E7EBFA4F580345FEA46066D41D6
:1019100016F1800745F100054FEA172747EA0567EA
:101920004FEA15254FEA0666A6F1DE46B6F1805F5E
:1019300020D9384605EBC47124F0010C01EB0C11E1
:10194000BCF1FE6F02D8F0BCBDE8008124425CBF50
:1019500001F5801E9EEAC47F02D4F0BCBDE8008180
:10196000244200F13980A1F1C041F0BCBDE8004142
:1019700000F017B94FEAD02040EA41504FEAD12198
:101980004FEAD22242EA43524FEAD323A7FB028610
:1019900007FB036605FB02661EEA0E0F58BFA6EBA7
:1019A0000056B6EB00564FEA520E4EEAC37E18EBD5
:1019B0000E0E56EB530EBCD518EB02085E417F1C91
:1019C00055F10005B5E74FF480154FF000074FF0D3
:1019D00000064FF00008ACE701F1C04101F0004102
:1019E0004FF00000F0BCBDE800810CEA131511EACD
:1019F0000C1F00D00CE013EA0C1F00F026804FF003
:101A0000000081EA030101F00041F0BCBDE8008163
:101A1000F0BCBDE8004181EA030100F0C2B8F0BCAF
:101A2000BDE8004170B500F06EF800BF097EFC3ED5
:101A300000F007B84FF0000081EA030101F0004117
:101A4000704781EA030100F0ACB8F0BCBDE800418A
:101A500022494FF000007047FFFDFBF9F7F5F4F263
:101A6000F0EEEDEBE9E8E6E4E3E1E0DEDDDBDAD839
:101A7000D7D5D4D3D1D0CFCDCCCBCAC8C7C6C5C497
:101A8000C2C1C0BFBEBDBCBBBAB9B8B7B6B5B4B3AE
:101A9000B2B1B0AFAEADACABAAA9A8A8A7A6A5A499
:101AA000A3A3A2A1A09F9F9E9D9C9C9B9A9999985D
:101AB0009797969595949393929191908F8F8E8E00
:101AC0008D8C8C8B8B8A898988888787868585848D
:101AD00084838382828181800000FF070000F87F79
:101AE000B0FA80F310FA03F10AD0C3F11D0303F535
:101AF00080634FEA03524FEA415002EBD121704715
:101B00004FF0000070470EF1020E2EF0030E5EF84B
:101B1000046B364205D4012A43EB030515F5001F7B
:101B200012D8012841EB010C1CF5001F0CD80ED176
:101B30004FEAD17C0CEB4C0C0CF1020C15F5001F9C
:101B400008BF4CEBD37C04E04FF0080C01E04FEAF7
:101B5000D37C0CEB4C0526FA05F606F00706B6F129
:101B6000040C06D20EEB860CBDE870404CF0010C64
:101B70006047DFE80CF0090B02024FF00041A1F5CD
:101B800000214FF0000070BD19461046012851EBAE
:101B9000010418BFD4F5001484BF002001F00041F7
:101BA00070BD0808A0F500114FEA31017047F1EE51
:101BB000100A4FF6FF71C0F2C03120EA010040F078
:101BC0004070E1EE100A7047FF2141EAD050C00595
:101BD0007047000000000000000001020304060737
:101BE000080900000000010203040000101C0008A6
:101BF0000000002010000000C4010008201C0008A4
:101C00001000002018070000E0010008000000009C
:101C100001000000100000000024F400000000009B
:040000050800018965
:00000001FF
